:020000040000FA
:04000000C5EF3FF019
:107F8A000001D3EF3FF0D3508F0B3009D36E200E90
:107F9A00AC6E900EAB6E0C0EAF6E1200C8EC3FF0DA
:107FAA00000E956E900EAB6E9ECF01F01F0E01165D
:107FBA00D8B4E2EF3FF0E4EF3FF0D9EF3FF0AECFB5
:107FCA0002F0800EAB6E550E0218D8A4EFEF3FF008
:107FDA00F1EF3FF0F3EF3FF00F0E836E620E016E8A
:107FEA00660EE82EFED7012EFCD7000E836ED7EF61
:067FFA003FF000EF00F073
:020000040020DA
:08000000FFFFFFFFFFFFFFFF00
:020000040030CA
:0E000000FF081F1EFF8981FF0FC00FE00F4099
:00000001FF
