:020000040000FA
:0400000041EF3FF09D
:107E8200000144EF3FF0000E956E010E836E020E6C
:107E9200026E450E016EAA0EE82EFED7012EFCD709
:107EA200022EFAD7020E836E020E026E450E016E8C
:107EB200AA0EE82EFED7012EFCD7022EFAD7040E08
:107EC200836E020E026E450E016EAA0EE82EFED7DA
:107ED200012EFCD7022EFAD7080E836E020E026E16
:107EE200450E016EAA0EE82EFED7012EFCD7022EF9
:107EF200FAD7100E836E020E026E450E016EAA0EA6
:107F0200E82EFED7012EFCD7022EFAD7200E836E62
:107F1200020E026E450E016EAA0EE82EFED7012E4B
:107F2200FCD7022EFAD7400E836E020E026E450E69
:107F3200016EAA0EE82EFED7012EFCD7022EFAD72A
:107F4200800E836E020E026E450E016EAA0EE82EA0
:107F5200FED7012EFCD7022EFAD7400E836E020EF8
:107F6200026E450E016EAA0EE82EFED7012EFCD738
:107F7200022EFAD7200E836E020E026E450E016E9D
:107F8200AA0EE82EFED7012EFCD7022EFAD7100E2B
:107F9200836E020E026E450E016EAA0EE82EFED709
:107FA200012EFCD7022EFAD7080E836E020E026E45
:107FB200450E016EAA0EE82EFED7012EFCD7022E28
:107FC200FAD7040E836E020E026E450E016EAA0EE1
:107FD200E82EFED7012EFCD7022EFAD7020E836EB0
:107FE200020E026E450E016EAA0EE82EFED7012E7B
:0E7FF200FCD7022EFAD746EF3FF000EF00F06A
:020000040020DA
:08000000FFFFFFFFFFFFFFFF00
:020000040030CA
:0E000000FF081F1FFF8B85FF0FC00FE00F4092
:00000001FF
