:020000040000FA
:04000000E2EF00F03B
:100008001B82F2A20AEF00F00CEF00F011EF00F0F3
:10001800000E0E6E010E0D6EF292F2A416EF00F0B5
:1000280018EF00F0E0EF00F00D040E10D8A41FEF59
:1000380000F021EF00F0DFEF00F0114A122A12BEA3
:100048002FEF00F0125009E1160E115CD8A02FEF27
:1000580000F031EF00F04EEF00F00B500C10D8A478
:1000680038EF00F03AEF00F04EEF00F0010E836E2B
:10007800230E11181210D8A444EF00F046EF00F038
:100088004EEF00F0000E0C6E010E0B6E000E126E9D
:10009800010E116E0B500C10D8B455EF00F057EF4D
:1000A80000F083EF00F011C013F012C014F0000E3E
:1000B800166E0E0E156EE4EC00F013501410D8A452
:1000C80068EF00F06AEF00F083EF00F007500810C7
:1000D800D8B471EF00F073EF00F07EEF00F0839476
:1000E800000E086E000E076E000E0A6E010E096EF5
:1000F80083EF00F08384000E086E010E076E09502E
:100108000A10D8B48AEF00F08CEF00F0DFEF00F0AF
:100118000F4A102A030E0F14196E000E10141A6ECF
:1001280019501A10D8A49BEF00F09DEF00F0DFEFF4
:1001380000F005500610D8A4A4EF00F0A6EF00F0D8
:10014800AFEF00F00F0E83168388000E066E010EC7
:10015800056EDFEF00F003500410D8A4B6EF00F0EE
:10016800B8EF00F0C0EF00F08398838A000E046EA9
:10017800010E036EDFEF00F001500210D8A4C7EFA4
:1001880000F0C9EF00F0D1EF00F0839A838C000EE5
:10019800026E010E016EDFEF00F0839C838E000E6D
:1001A800066E000E056E000E046E000E036E000E45
:1001B800026E000E016EF2941B9211004CEF01F0DA
:1001C800000E186E14BEEDEF00F0EBEF00F0F3EF49
:1001D80000F0136C141ED8B0142A010E186E16BE47
:1001E800FAEF00F0F8EF00F0FEEF00F0156C161EC5
:1001F800D8B0162A15501610D8B405EF01F007EF3D
:1002080001F02BEF01F0010E176E0FEF01F0D890FF
:1002180015361636172A16AE14EF01F016EF01F050
:100228000BEF01F01550135C16501458D8A01FEFAF
:1002380001F021EF01F025EF01F01550135E165083
:10024800145AD89016321532172E16EF01F018509E
:10025800D8B431EF01F033EF01F037EF01F0136C50
:10026800141ED8B0142A13C013F014C014F01200CE
:10027800D3508F0B5009D36ED59ED59CD59AD59661
:10028800F80ED516F28AF294D58EF28EF28C120000
:1002980000EE01F0120EEE6AE806FDE11B901B92DB
:1002A800000157EF01F0000E956E93803CEC01F0D1
:1002B80062EC01F05EEF01F0E2EF00F0F288F292FA
:0802C800F19CD09EF28E1200A1
:020000040020DA
:08000000FFFFFFFFFFFFFFFF00
:020000040030CA
:0E000000FF081F1EFF0981FF0FC00FE00F4019
:00000001FF
