:020000040000FA
:0400000011EF00F00C
:1000080002829EA60AEF00F00CEF00F00FEF00F05E
:100018009E96C9CF01F00292110030EF00F00F0E4A
:10002800016E000E956EC696C684C692C6809486EA
:100038009488949AC79CC698C79EC68AF28C9D8657
:100048009E96D09EF28E120013EC00F035EC00F074
:100058002AEF00F011EF00F002900292000128EF61
:0800680000F001C083FF12004B
:020000040020DA
:08000000FFFFFFFFFFFFFFFF00
:020000040030CA
:0E000000FF08191FFF8881FF0FC00FE00F409F
:00000001FF
