:020000040000FA
:0400000043EF00F0DA
:100008000582F2A20AEF00F00CEF00F041EF00F0D9
:10001800180E8318D8A413EF00F015EF00F040EF86
:1000280000F0000E036E000E026E8368210E016E52
:10003800760EE82EFED7012EFCD700F000F0000E59
:10004800836E210E016E760EE82EFED7012EFCD7A8
:1000580000F000F0C80E0226000E032203BE3EEF99
:1000680000F0D10E025C070E0358D8A03EEF00F056
:1000780040EF00F019EF00F0F29205921100A3EFA3
:1000880000F0000E956E9380F288F292F19CD09E5B
:10009800F28E000E836E170E046EB90EE82EFED790
:1000A800042EFCD700F0030E836E170E046EB90EF3
:1000B800E82EFED7042EFCD700F0060E836E170E2E
:1000C800046EB90EE82EFED7042EFCD700F00C0EF5
:1000D800836E170E046EB90EE82EFED7042EFCD7D9
:1000E80000F0180E836E170E046EB90EE82EFED7B8
:1000F800042EFCD700F0300E836E170E046EB90E76
:10010800E82EFED7042EFCD700F0600E836E170E83
:10011800046EB90EE82EFED7042EFCD700F0C00EF0
:10012800836E170E046EB90EE82EFED7042EFCD788
:1001380000F0810E836E4FEF00F043EF00F0059062
:080148000592000145EF00F0F3
:020000040020DA
:08000000FFFFFFFFFFFFFFFF00
:020000040030CA
:0E000000FF081F1FFF8985FF0FC00FE00F4094
:00000001FF
