:020000040000FA
:04000000A5EF00F078
:100008000582F2A20AEF00F00CEF00F0A3EF00F077
:1000180001500210D8A413EF00F015EF00F01DEF07
:1000280000F0014A022A010E836E010EAD6EA2EFA6
:1000380000F001040210D8A424EF00F026EF00F02D
:100048002EEF00F0014A022A020E836E020EAD6EF8
:10005800A2EF00F0020E01180210D8A436EF00F04B
:1000680038EF00F040EF00F0014A022A040E836ED8
:10007800030EAD6EA2EF00F0030E01180210D8A413
:1000880048EF00F04AEF00F052EF00F0014A022A70
:10009800080E836E040EAD6EA2EF00F0040E011878
:1000A8000210D8A45AEF00F05CEF00F064EF00F003
:1000B800014A022A100E836E050EAD6EA2EF00F003
:1000C800050E01180210D8A46CEF00F06EEF00F0D6
:1000D80076EF00F0014A022A200E836E060EAD6EFE
:1000E800A2EF00F0060E01180210D8A47EEF00F06F
:1000F80080EF00F088EF00F0014A022A400E836E7C
:10010800070EAD6EA2EF00F0070E01180210D8A47A
:1001180090EF00F092EF00F09AEF00F0014A022A07
:10012800800E836E080EAD6EA2EF00F0000E026E18
:10013800000E016E000E836E000EAD6EF2920592F7
:100148001100D1EF00F0C6EC00F0D8EC00F0949C60
:10015800000E956E000EAD6E9EA8B5EF00F0B7EFDD
:1001680000F0B0EF00F0030E046E8A0E036E560E18
:10017800E82EFED7032EFCD7042EFAD7B0EF00F0F6
:10018800A5EF00F0D3508F0B5009D36E200EAC6E44
:10019800800EAB6E190EAF6E1200026A016A0590EE
:1001A80005920001A7EF00F0F288F292F19CD09E30
:0401B800F28E1200B1
:020000040020DA
:08000000FFFFFFFFFFFFFFFF00
:020000040030CA
:0E000000FF081F1EFF8981FF0FC00FE00F4099
:00000001FF
