:020000040000FA
:0400000015EF00F008
:100008000282F2A20CD0F29201500124016E100E6D
:100018000118D8A402D0010E016E01C0C9FF0292D6
:1000280011002EEF00F0010E016E000E956E938008
:10003800C696C694C692C69094969488949AC79C7D
:10004800C698C79EC68AF288F292F19CF19ED09E0D
:10005800F28E120002900292000133EF00F017ECCA
:0E00680000F038EC00F0FDD701C083FF12005D
:020000040020DA
:08000000FFFFFFFFFFFFFFFF00
:020000040030CA
:0E000000FF08191EFF8881FF0FC00FE00F40A0
:00000001FF
