:020000040000FA
:0400000021EF00F0FC
:100008000282F2A20AEF00F00CEF00F01FEF00F0FE
:10001800800E836E01500124016E100E0118D8A4C1
:1000280018EF00F01AEF00F01CEF00F0010E016E5F
:1000380001C0C9FFF2920292110043EF00F0010ED5
:10004800016E000E956E010E936EC696C694C6920A
:10005800C69094969488949AC79CC698C79EC68A58
:10006800F288F292F19CF19ED09EF28E120023EC5F
:1000780000F048EC00F03DEF00F021EF00F00290B6
:0E008800029200013BEF00F001C083FF120066
:020000040020DA
:08000000FFFFFFFFFFFFFFFF00
:020000040030CA
:0E000000FF08191EFF8881FF0FC00FE00F40A0
:00000001FF
