:020000040000FA
:04000000CAEF3FF014
:107F94000001D8EF3FF0D3508F0B3009D36E200E81
:107FA400AC6E900EAB6E0C0EAF6E12009368CDECFF
:107FB4003FF0000E956E81CF02F00250D8B4E5EF89
:107FC4003FF0E7EF3FF0DDEF3FF0550EAD6E010EF1
:107FD400836E9EA8F0EF3FF0F2EF3FF0EBEF3FF03F
:107FE400A30E016E550EE82EFED7012EFCD700F02D
:0C7FF400000E836EDDEF3FF000EF00F0A8
:020000040020DA
:08000000FFFFFFFFFFFFFFFF00
:020000040030CA
:0E000000FF081F1EFF8981FF0FC00FE00F4099
:00000001FF
