:020000040000FA
:04000000BFEF3FF01F
:107F7E000001C2EF3FF0D3508F0B3009D36E000ECD
:107F8E00956E240E836E040E026ECF0E016E020EDF
:107F9E00E82EFED7012EFCD7022EFAD7220E836EC4
:107FAE00020E026E450E016EAA0EE82EFED7012EAF
:107FBE00FCD7022EFAD7810E836E040E026ECF0E00
:107FCE00016E020EE82EFED7012EFCD7022EFAD736
:107FDE00410E836E020E026E450E016EAA0EE82E43
:107FEE00FED7012EFCD7022EFAD7C8EF3FF000EFD6
:027FFE0000F091
:020000040020DA
:08000000FFFFFFFFFFFFFFFF00
:020000040030CA
:0E000000FF081F1EFF8981FF0FC00FE00F4099
:00000001FF
