:020000040000FA
:04000000A5EF3FF039
:107F4A000001A8EF3FF0000E956E050E836EA30E9A
:107F5A00016E550EE82EFED7012EFCD700F0150E45
:107F6A00836EA30E016E550EE82EFED7012EFCD7A6
:107F7A0000F0250E836EA30E016E550EE82EFED775
:107F8A00012EFCD700F0450E836EA30E016E550E2E
:107F9A00E82EFED7012EFCD700F0810E836EA30EC9
:107FAA00016E550EE82EFED7012EFCD700F0110EF9
:107FBA00836EA30E016E550EE82EFED7012EFCD756
:107FCA0000F0210E836EA30E016E550EE82EFED729
:107FDA00012EFCD700F0410E836EA30E016E550EE2
:107FEA00E82EFED7012EFCD700F0850E836EACEF8B
:067FFA003FF000EF00F073
:020000040020DA
:08000000FFFFFFFFFFFFFFFF00
:020000040030CA
:0E000000FF081F1EFF0B81FF0FC00FE00F4017
:00000001FF
