:020000040000FA
:04000000BBEF3FF023
:107F76000001BEEF3FF0D3508F0B3009D36E000ED9
:107F8600956E240E836E090E026EE10E016EB20E20
:107F9600E82EFED7012EFCD7022EFAD700F000F00D
:107FA600220E836E040E026ECF0E016E020EE82EB6
:107FB600FED7012EFCD7022EFAD7810E836E090E4C
:107FC600026EE10E016EB20EE82EFED7012EFCD730
:107FD600022EFAD700F000F0410E836E040E026EF8
:107FE600CF0E016E020EE82EFED7012EFCD7022E12
:0A7FF600FAD7C4EF3FF000EF00F0EF
:020000040020DA
:08000000FFFFFFFFFFFFFFFF00
:020000040030CA
:0E000000FF081F1EFF8981FF0FC00FE00F4099
:00000001FF
