:020000040000FA
:040000006BEF3FF073
:107ED60000016EEF3FF0000E956E9380000E046E6B
:107EE600000E036EDFEF3FF081B07CEF3FF07EEFD8
:107EF6003FF082EF3FF0034A042ADFEF3FF0010E26
:107F0600836E81B089EF3FF08BEF3FF08DEF3FF04E
:107F1600EDEF3FF00B0E026E260E016E5E0EE82EA2
:107F2600FED7012EFCD7022EFAD781B09DEF3FF087
:107F36009FEF3FF0A1EF3FF0EDEF3FF0020E836EB3
:107F460081B0A8EF3FF0AAEF3FF0ACEF3FF0EDEFC6
:107F56003FF0030E026E8A0E016E560EE82EFED715
:107F6600012EFCD7022EFAD781B0BCEF3FF0BEEF50
:107F76003FF0C0EF3FF0EDEF3FF0040E836E81B0AF
:107F8600C7EF3FF0C9EF3FF0CBEF3FF0EDEF3FF02B
:107F9600060E026E130E016EAE0EE82EFED7012EF1
:107FA600FCD7022EFAD781B0DBEF3FF0DDEF3FF0D2
:107FB600DFEF3FF0EDEF3FF004BEEBEF3FF0045094
:107FC60009E1040E035CD8A0EBEF3FF0EDEF3FF0C4
:107FD60077EF3FF0000E836E800E836E070E026E03
:107FE600580E016E5A0EE82EFED7012EFCD7022E31
:0A7FF600FAD771EF3FF000EF00F042
:020000040020DA
:08000000FFFFFFFFFFFFFFFF00
:020000040030CA
:0E000000FF081F1FFF8985FF0FC00FE00F4094
:00000001FF
