:020000040000FA
:04000000B6EF3FF028
:107F6C000001C4EF3FF0D3508F0B3009D36E200EBD
:107F7C00AC6E900EAB6E0C0EAF6E12009368B9EC3B
:107F8C003FF0000E956E81CF02F00250D8B4D1EFC5
:107F9C003FF0D3EF3FF0C9EF3FF0000E046E000E40
:107FAC00036E550EAD6E010E836E9EA8E0EF3FF092
:107FBC00E2EF3FF0DBEF3FF0A30E016E550EE82E23
:107FCC00FED7012EFCD700F0000E836E034A042A64
:107FDC0004BEFAEF3FF0045009E10A0E035CD8A08E
:107FEC00FAEF3FF0FCEF3FF0D7EF3FF0C9EF3FF077
:047FFC0000EF00F0A2
:020000040020DA
:08000000FFFFFFFFFFFFFFFF00
:020000040030CA
:0E000000FF081F1EFF8981FF0FC00FE00F4099
:00000001FF
