:020000040000FA
:04000000C4EF3FF01A
:107F88000001D2EF3FF0D3508F0B3009D36E200E93
:107F9800AC6E900EAB6E0C0EAF6E1200C7EC3FF0DD
:107FA800000E956E900EAB6E9ECF01F01F0E01165F
:107FB800D8B4E1EF3FF0E3EF3FF0D8EF3FF0AECFBA
:107FC80002F0800EAB6E550E0218D8A4EEEF3FF00B
:107FD800F0EF3FF0F2EF3FF0010E836EA30E016E5B
:107FE800550EE82EFED7012EFCD700F0000E836E4A
:087FF800D6EF3FF000EF00F0AE
:020000040020DA
:08000000FFFFFFFFFFFFFFFF00
:020000040030CA
:0E000000FF081F1EFF8981FF0FC00FE00F4099
:00000001FF
